:020000040800F2
:10000000000002204D600008FD4800080349000878
:10001000094900080F4900081549000800000000C0
:100020000000000000000000000000001B49000864
:100030002949000800000000374900084549000828
:100040009D6000089D6000089D6000089D6000089C
:100050009D6000089D6000089D6000089D6000088C
:100060009D6000089D6000089D6000089D6000087C
:100070009D6000089D6000089D6000089D6000086C
:100080009D6000089D6000089D6000089D6000085C
:100090009D6000089D6000089D6000089D6000084C
:1000A0009D6000089D6000089D6000089D6000083C
:1000B000514900089D6000089D6000089D6000088F
:1000C0009D6000089D6000089D6000089D6000081C
:1000D0009D60000865490008794900089D60000896
:1000E0009D6000089D6000089D6000089D600008FC
:1000F0009D6000089D6000089D6000089D600008EC
:100100009D6000089D6000089D6000089D600008DB
:100110009D6000089D6000089D6000089D600008CB
:100120008D4900089D6000089D6000089D600008E2
:100130009D6000089D6000089D6000089D600008AB
:100140009D6000089D6000089D6000089D6000089B
:100150009D6000089D6000089D6000089D6000088B
:100160009D6000089D6000089D6000089D6000087B
:100170009D6000089D6000089D6000080000000070
:080180009D6000089D6000086D
:1001900010B5054C237833B9044B13B10448AFF3C1
:1001A00000800123237010BDE40000200000000047
:1001B000DCCF000808B5034B1BB103490348AFF37C
:1001C000008008BD00000000E8000020DCCF00082F
:1001D00001F0FF01102A2BDB10F0070F08D010F8F8
:1001E000013B013A8B422DD010F0070F42B3F6D1FC
:1001F000F0B441EA012141EA014122F007047FF015
:1002000000070023F0E80256083C85EA010586EA6B
:10021000010685FA47F5A3FA87F586FA47F6A5FAA7
:1002200087F68EB9EED1F0BC01F0FF0102F00702B3
:1002300032B110F8013B013A83EA010313B1F8D15E
:100240000020704701387047002D06BF354603383F
:10025000073815F0010F07D1013015F4807F02BF78
:10026000013015F4C03F0130F0BC0138704700BFC9
:1002700081F0004102E000BF83F0004330B54FEA57
:1002800041044FEA430594EA050F08BF90EA020FC4
:100290001FBF54EA000C55EA020C7FEA645C7FEA57
:1002A000655C00F0E2804FEA5454D4EB5555B8BF7A
:1002B0006D420CDD2C4480EA020281EA030382EAEB
:1002C000000083EA010180EA020281EA0303362D7D
:1002D00088BF30BD11F0004F4FEA01314FF4801C50
:1002E0004CEA113102D0404261EB410113F0004F62
:1002F0004FEA03334CEA133302D0524263EB430319
:1003000094EA050F00F0A780A4F10104D5F1200EB6
:100310000DDB02FA0EFC22FA05F2801841F1000111
:1003200003FA0EF2801843FA05F359410EE0A5F1E5
:1003300020050EF1200E012A03FA0EFC28BF4CF016
:10034000020C43FA05F3C01851EBE37101F00045CC
:1003500007D54FF0000EDCF1000C7EEB00006EEBD9
:100360000101B1F5801F1BD3B1F5001F0CD3490863
:100370005FEA30004FEA3C0C04F101044FEA4452BA
:1003800012F5800F80F09A80BCF1004F08BF5FEA41
:10039000500C50F1000041EB045141EA050130BD21
:1003A0005FEA4C0C404141EB0101013C28BFB1F533
:1003B000801FE9D291F0000F04BF01460020B1FA7E
:1003C00081F308BF2033A3F10B03B3F120020CDA51
:1003D0000C3208DD02F1140CC2F10C0201FA0CF02F
:1003E00021FA02F10CE002F11402D8BFC2F1200C94
:1003F00001FA02F120FA0CFCDCBF41EA0C0190404A
:10040000E41AA2BF01EB0451294330BD6FEA040492
:100410001F3C1CDA0C340EDC04F11404C4F120027D
:1004200020FA04F001FA02F340EA030021FA04F38F
:1004300045EA030130BDC4F10C04C4F1200220FAE6
:1004400002F001FA04F340EA0300294630BD21FA24
:1004500004F0294630BD94F0000F83F4801306BFEA
:1004600081F480110134013D4EE77FEA645C18BFDE
:100470007FEA655C29D094EA050F08BF90EA020F75
:1004800005D054EA000C04BF1946104630BD91EA6D
:10049000030F1EBF0021002030BD5FEA545C05D170
:1004A0004000494128BF41F0004130BD14F58004AF
:1004B0003CBF01F5801130BD01F0004545F0FE4123
:1004C00041F470014FF0000030BD7FEA645C1ABF58
:1004D000194610467FEA655C1CBF0B46024650EA8F
:1004E000013406BF52EA033591EA030F41F40021BB
:1004F00030BD00BF90F0000F04BF0021704730B541
:100500004FF4806404F132044FF000054FF0000115
:1005100050E700BF90F0000F04BF0021704730B5D6
:100520004FF4806404F1320410F0004548BF4042AB
:100530004FF000013EE700BF42004FEAE2014FEA00
:1005400031014FEA02701FBF12F07F4393F07F4FDB
:1005500081F06051704732F07F4208BF704793F0DE
:100560007F4F04BF41F40021704730B54FF46074F1
:1005700001F0004521F000411CE700BF50EA0102F4
:1005800008BF704730B54FF000050AE050EA01029D
:1005900008BF704730B511F0004502D5404261EB0D
:1005A00041014FF4806404F132045FEA915C3FF44E
:1005B000D8AE4FF003025FEADC0C18BF03325FEAEB
:1005C000DC0C18BF033202EBDC02C2F1200300FA9C
:1005D00003FC20FA02F001FA03FE40EA0E0021FAC1
:1005E00002F11444BDE600BF70B54FF0FF0C4CF4AF
:1005F000E06C1CEA11541DBF1CEA135594EA0C0F61
:1006000095EA0C0F00F0DEF82C4481EA030621EA9B
:100610004C5123EA4C5350EA013518BF52EA0335D6
:1006200041F4801143F4801338D0A0FB02CE4FF088
:100630000005E1FB02E506F00042E0FB03E54FF0B8
:100640000006E1FB03569CF0000F18BF4EF0010EB0
:10065000A4F1FF04B6F5007F64F5407404D25FEAAC
:100660004E0E6D4146EB060642EAC62141EA55515F
:100670004FEAC52040EA5E504FEACE2EB4F1FD0CA1
:1006800088BFBCF5E06F1ED8BEF1004F08BF5FEA1F
:10069000500E50F1000041EB045170BD06F00046D1
:1006A00046EA010140EA020081EA0301B4EB5C047E
:1006B000C2BFD4EB0C0541EA045170BD41F4801176
:1006C0004FF0000E013C00F3AB8014F1360FDEBF9B
:1006D000002001F0004170BDC4F10004203C35DA77
:1006E0000C341BDC04F11404C4F1200500FA05F3FA
:1006F00020FA04F001FA05F240EA020001F000429B
:1007000021F0004110EBD37021FA04F642EB060110
:100710005EEA430E08BF20EAD37070BDC4F10C043A
:10072000C4F1200500FA04F320FA05F001FA04F2FE
:1007300040EA020001F0004110EBD37041F10001EA
:100740005EEA430E08BF20EAD37070BDC4F12005F5
:1007500000FA05F24EEA020E20FA04F301FA05F25D
:1007600043EA020321FA04F001F0004121FA04F205
:1007700020EA020000EBD3705EEA430E08BF20EAD5
:10078000D37070BD94F0000F0FD101F0004640000F
:1007900041EB010111F4801F08BF013CF7D041EA91
:1007A000060195F0000F18BF704703F00046520095
:1007B00043EB030313F4801F08BF013DF7D043EA66
:1007C0000603704794EA0C0F0CEA135518BF95EA1C
:1007D0000C0F0CD050EA410618BF52EA4306D1D1A3
:1007E00081EA030101F000414FF0000070BD50EAC2
:1007F000410606BF1046194652EA430619D094EA4C
:100800000C0F02D150EA013613D195EA0C0F05D135
:1008100052EA03361CBF104619460AD181EA030189
:1008200001F0004141F0FE4141F470014FF0000041
:1008300070BD41F0FE4141F4780170BD70B54FF0DC
:10084000FF0C4CF4E06C1CEA11541DBF1CEA13555C
:1008500094EA0C0F95EA0C0F00F0A7F8A4EB05043E
:1008600081EA030E52EA03354FEA013100F0888035
:100870004FEA03334FF0805545EA131343EA1263FE
:100880004FEA022245EA111545EA10654FEA0026B3
:100890000EF000419D4208BF964244F1FD0404F56C
:1008A000407402D25B084FEA3202B61A65EB0305C8
:1008B0005B084FEA32024FF480104FF4002CB6EB85
:1008C000020E75EB030E22BFB61A754640EA0C0005
:1008D0005B084FEA3202B6EB020E75EB030E22BF45
:1008E000B61A754640EA5C005B084FEA3202B6EB86
:1008F000020E75EB030E22BFB61A754640EA9C0045
:100900005B084FEA3202B6EB020E75EB030E22BF14
:10091000B61A754640EADC0055EA060E18D04FEAD2
:10092000051545EA16754FEA06164FEAC30343EA72
:1009300052734FEAC2025FEA1C1CC0D111F4801F3F
:100940000BD141EA00014FF000004FF0004CB6E738
:1009500011F4801F04BF01430020B4F1FD0C88BFD7
:10096000BCF5E06F3FF6AFAEB5EB030C04BFB6EBE2
:10097000020C5FEA500C50F1000041EB045170BDD5
:100980000EF0004E4EEA113114EB5C04C2BFD4EB02
:100990000C0541EA045170BD41F480114FF0000E86
:1009A000013C90E645EA060E8DE60CEA135594EA02
:1009B0000C0F08BF95EA0C0F3FF43BAF94EA0C0F05
:1009C0000AD150EA01347FF434AF95EA0C0F7FF47A
:1009D00025AF104619462CE795EA0C0F06D152EACE
:1009E00003353FF4FDAE1046194622E750EA4106B2
:1009F00018BF52EA43067FF4C5AE50EA41047FF4C3
:100A00000DAF52EA43057FF4EBAE12E74FF0FF3C27
:100A100006E000BF4FF0010C02E000BF4FF0010CF8
:100A20004DF804CD4FEA410C7FEA6C5C4FEA430C71
:100A300018BF7FEA6C5C1BD001B050EA410C0CBFC0
:100A400052EA430C91EA030F02BF90EA020F002022
:100A5000704710F1000F91EA030F58BF994208BF89
:100A600090422CBFD8176FEAE37040F00100704746
:100A70004FEA410C7FEA6C5C02D150EA013C07D19D
:100A80004FEA430C7FEA6C5CD6D152EA033CD3D0E8
:100A90005DF8040B704700BF8446104662468C46E2
:100AA0001946634600E000BF01B5FFF7B7FF002815
:100AB00048BF10F1000F01BD4DF808EDFFF7F4FF3E
:100AC0000CBF012000205DF808FB00BF4DF808EDC9
:100AD000FFF7EAFF34BF012000205DF808FB00BFEC
:100AE0004DF808EDFFF7E0FF94BF012000205DF80E
:100AF00008FB00BF4DF808EDFFF7CEFF94BF0120C3
:100B000000205DF808FB00BF4DF808EDFFF7C4FFBB
:100B100034BF012000205DF808FB00BF4FEA410C04
:100B20007FEA6C5C02D150EA013C0AD14FEA430CE7
:100B30007FEA6C5C02D152EA033C02D14FF0000024
:100B400070474FF0010070474A0011D212F50012B1
:100B500011D20DD56FF47873B3EB62520ED44FEA15
:100B6000C12343F0004343EA505323FA02F0704795
:100B70004FF00000704750EA013002D14FF0FF30D3
:100B800070474FF00000704753B94AB9002908BFB9
:100B900000281CBF4FF0FF314FF0FF3000F06EB95E
:100BA000ADF1080C6DE904CE00F006F8DDF804E0C4
:100BB000DDE9022304B070472DE9F047089D0446A3
:100BC0008C46002B40F083808A42174647D9B2FA00
:100BD00082F242B1C2F1200024FA00F09140974025
:100BE00040EA010C94404FEA1748230CBCFBF8F68E
:100BF0001FFA87FE08FB16C143EA014306FB0EF10C
:100C0000994209D9FB1806F1FF3080F01981994209
:100C100040F21681023E3B445B1AA4B2B3FBF8F0EB
:100C200008FB103344EA034400FB0EFEA64509D935
:100C30003C1900F1FF3380F00581A64540F20281A6
:100C400002383C4440EA0640A4EB0E0400261DB1E5
:100C5000D4400023C5E900433146BDE8F08702B91E
:100C6000FFDEB2FA82F2002A50D1CB1B4FEA174EB8
:100C70001FFA87F80126B3FBFEFC210C0EFB1C3388
:100C800041EA034108FB0CF38B4207D979180CF1B8
:100C9000FF3002D28B4200F2E9808446C91AA3B227
:100CA000B1FBFEF00EFB101143EA014408FB00F813
:100CB000A04507D93C1900F1FF3302D2A04500F24C
:100CC000D9801846A4EB080440EA0C40BFE78B42E9
:100CD00009D9002D00F0B1800026C5E90001304699
:100CE0003146BDE8F087B3FA83F6002E4AD18B4235
:100CF00002D3824200F2B880841A61EB0301012022
:100D00008C46002DA8D0C5E9004CA5E7C2F1200310
:100D100020FA03F6974001FA02F04FEA174ED94045
:100D20003043030CB1FBFEF61FFA87F80EFB1611D9
:100D300043EA014306FB08F1994204FA02F409D997
:100D4000FB1806F1FF3C80F08D80994240F28A80CA
:100D5000023E3B445B1A81B2B3FBFEF00EFB103344
:100D600041EA034100FB08F38B4207D9791800F1EF
:100D7000FF3C73D28B4271D902383944CB1A40EA16
:100D8000064678E7C6F1200C03FA06F422FA0CF3C3
:100D90001C4320FA0CF701FA06F34FEA144E21FA2D
:100DA0000CF11F433B0CB1FBFEF91FFA84F80EFB5C
:100DB000191143EA014109FB08FA8A4502FA06F2D1
:100DC00000FA06F308D9611809F1FF3048D28A45C4
:100DD00046D9A9F102092144A1EB0A01BFB2B1FB36
:100DE000FEF00EFB101147EA014700FB08F8B8457A
:100DF00007D9E71900F1FF312ED2B8452CD90238B6
:100E0000274440EA0940A7EB0807A0FB02894F45A9
:100E1000C64649461AD317D05DB1B3EB0E0267EB55
:100E2000010707FA0CFCF2404CEA0202F740C5E960
:100E3000002700263146BDE8F0872E4628460BE7FE
:100E40000646E9E61846FDE64345E5D2B8EB020E54
:100E500069EB04010138DFE70846D2E760468DE719
:100E60008146B9E7664675E730464AE7ACF1020CC1
:100E7000394413E702383C4424E700BF704700BF01
:100E800080B584B000AF3B4600221A605A609A6079
:100E9000DA603D4B3D4A1A603B4B00225A603A4BA8
:100EA00000229A60384B01221A61374B00221A76D1
:100EB000354B002283F82020334B0022DA62324B7C
:100EC000334A9A62304B0022DA602F4B0522DA61F6
:100ED0002D4B002283F830202B4B01225A612A48E7
:100EE00005F074F90346002B01D002F087FA0823BD
:100EF0003B6001237B600023BB603B4619462248D0
:100F000005F0A8F90346002B01D002F077FA092377
:100F10003B6002237B603B4619461B4805F09AF96B
:100F20000346002B01D002F069FA0A233B60032339
:100F30007B603B461946144805F08CF90346002BAC
:100F400001D002F05BFA0B233B6004237B603B463D
:100F500019460D4805F07EF90346002B01D002F03A
:100F60004DFA0C233B6005237B603B46194606483F
:100F700005F070F90346002B01D002F03FFA00BFE4
:100F80001037BD4680BD00BFC009002000200140D1
:100F90000100000F80B58AB000AF786007F114033C
:100FA00000221A605A609A60DA601A617B681B68D6
:100FB0003C4A934271D100233B613B4B5B6C3A4A04
:100FC00043F480735364384B5B6C03F480733B6170
:100FD0003B690023FB60344B1B6B334A43F0040333
:100FE0001363314B1B6B03F00403FB60FB680023AE
:100FF000BB602D4B1B6B2C4A43F0020313632A4B3F
:101000001B6B03F00203BB60BB6807237B610323F8
:10101000BB610023FB6107F114031946234805F067
:10102000C5FF03237B610323BB610023FB6107F141
:10103000140319461E4805F0B9FF1E4B1E4A1A60DC
:101040001C4B00225A601B4B00229A60194B002255
:10105000DA60184B4FF480621A61164B4FF400624D
:101060005A61144B4FF400529A61124B4FF4807244
:10107000DA61104B00221A620E4B00225A620D48B0
:1010800005F018FC0346002B01D002F0B7F97B688D
:10109000084A9A63074A7B68936300BF2837BD46B6
:1010A00080BD00BF0020014000380240000802401F
:1010B00000040240080A00201064024080B500AF1E
:1010C00000F03CF800BF80BD80B588B004AF034697
:1010D000FB800023FB73FA880A2302930123019308
:1010E00007F10F0300931023A021044806F06AFBC8
:1010F000FB7B18461037BD4680BD00BFD80A0020D4
:1011000080B586B004AF03460A46FB8013467B7168
:10111000FA880A230293012301937B1D0093102375
:10112000A021054806F054FA052005F02BF800BF71
:101130000837BD4680BD00BFD80A002080B582B008
:1011400000AF4FF6FF70FFF7BFFF0346FB71FB795F
:10115000552B01D1002310E055214FF6FF70FFF70A
:10116000CFFF4FF6FF70FFF7AFFF0346FB71FB7930
:10117000552B01D1002300E0012318460837BD4656
:1011800080BD90B583B000AF03463960FB80134645
:10119000BB800DE0FB885A1CFA803C68621C3A60F8
:1011A0001846FFF791FF03462370BB88013BBB80C5
:1011B000BB88002BEED100BF00BF0C37BD4690BDF1
:1011C00080B582B000AF03463960FB801346BB8018
:1011D0000CE03B681A78FB8811461846FFF790FF31
:1011E000FB880133FB803B6801333B60BB885A1EA0
:1011F000BA80002BEDD100BF00BF0837BD4680BDCF
:1012000080B500AF01220821024806F083F800BF34
:1012100080BD00BF000C024080B584B000AF00224A
:1012200008212F4806F076F8012208212C4806F004
:1012300071F80A2302222B492B4807F07EFE002377
:10124000FB604FF400437B8100237B603FE07B68C1
:10125000002B06DB7B68032B03DC7B680433FB601D
:1012600018E07B68032B07DD7B68072B04DC7B68B9
:10127000C3F10703FB600DE07B68072B06DD7B688D
:101280000B2B03DC7B680433FB6003E07B68C3F15A
:101290001703FB60134B1A887B8913409BB2002B0A
:1012A00005D0124AFB68002122F8131009E00F4A0A
:1012B000FB6832F81330013399B20C4AFB6822F80C
:1012C00013107B895B087B817B6801337B607B68C3
:1012D0000F2BBCDD00BF00BF1037BD4680BD00BF77
:1012E000000C024000010020680B0020680A00206A
:1012F00080B500AF0021024808F0C8FB00BF80BDE8
:10130000C00B002080B582B000AF00237B600C4B87
:101310001B6B0B4A43F480031363094B1B6B03F4F1
:1013200080037B607B6800220021382005F08BFA67
:10133000382005F0A4FA00BF0837BD4680BD00BFC5
:101340000038024080B500AF1A4B1B68032B2ED823
:1013500001A252F823F000BF6913000877130008B8
:10136000891300089B130008134B00221A60134BCB
:1013700000221A601BE0104B01221A600F4B002262
:101380001A6002F013FE12E00B4B01221A600B4BA5
:1013900001221A6002F00AFE09E0074B00221A60DF
:1013A000064B00221A60064BB4221A6000BF00BF31
:1013B00080BD00BF0C010020140100201801002096
:1013C0000800002080B400AF4D4B1B88012B08D1D2
:1013D0004C4B1A6813469B0013445B000133494A87
:1013E0001360474B5B88012B08D1464B1A681346A4
:1013F0009B0013445B000233424A1360404B9B88BE
:10140000012B08D13F4B1A6813469B0013445B0025
:1014100003333C4A13603A4B1B89012B08D1394BEB
:101420001A6813469B0013445B000433354A13606B
:10143000334B5B89012B08D1324B1A6813469B0052
:1014400013445B0005332F4A13602D4B9B89012BFE
:1014500008D12C4B1A6813469B0013445B000633DB
:10146000284A1360264B1B8A012B08D1254B1A688A
:1014700013469B0013445B000733224A1360204B42
:101480005B8A012B08D11F4B1A6813469B0013443B
:101490005B0008331B4A1360194B9B8A012B08D150
:1014A000184B1A6813469B0013445B000933154A16
:1014B0001360134B5B8B012B08D1124B1A68134638
:1014C0009B0013445B001A460E4B1A600D4B1B68C1
:1014D00042F20F7293420EDD0A4B19680A4B83FBEE
:1014E00001239A10CB17D21A13469B0013445B00BA
:1014F000CA1A044B1A6000BFBD465DF8047B7047F2
:10150000680A0020080100206766666680B584B01E
:1015100004AF7A4B1B8B012B1DD1002001F032F858
:101520004FF4FC6300934FF49673BE22FA213220ED
:1015300001F05AF80123029318230193002300932A
:1015400000236F4A4FF482715A2001F005FD6D4B64
:1015500000221A60D0E0002302931023019300239D
:1015600000934FF6FF73684A0A21002001F0F4FC53
:101570000023029310230193002300934FF6FF737F
:10158000624A1E21002001F0E7FC00230293102391
:101590000193002300934FF6FF735D4A3221002030
:1015A00001F0DAFC0023029310230193002300933F
:1015B0004FF6FF73574A4621002001F0CDFC00236F
:1015C000029310230193002300934FF6FF73524AB6
:1015D0005A21002001F0C0FC484B1B88012B1FD171
:1015E0004E4B00221A60002000F0CCFF454B002239
:1015F0001A604FF4FC6300934FF49673BE22FA21F5
:10160000322000F0F1FF01230293182301930023FD
:10161000009300233A4A4FF482715A2001F09CFC57
:10162000364B5B88012B1FD13C4B01221A600020F6
:1016300000F0A8FF334B00221A604FF4FC630093C4
:101640004FF49673BE22FA21322000F0CDFF012321
:10165000029318230193002300930023284A4FF498
:1016600082715A2001F078FC244B9B88012B1FD1FA
:101670002A4B02221A60002000F084FF214B002236
:101680001A604FF4FC6300934FF49673BE22FA2164
:10169000322000F0A9FF01230293182301930023B5
:1016A00000930023164A4FF482715A2001F054FC33
:1016B000124B1B89012B1FD1184B03221A600020EB
:1016C00000F060FF0F4B00221A604FF4FC630093A0
:1016D0004FF49673BE22FA21322000F085FF0123D9
:1016E000029318230193002300930023044A4FF42C
:1016F00082715A2001F030FCBD4680BD680A00208E
:10170000F4CF000804010020FCCF000808D0000836
:1017100010D000081CD0000828D000080C010020C0
:1017200080B584B004AF634B1B8B012B1DD100200F
:1017300000F028FF604B00221A604FF4FC63009316
:101740004FF49673BE22FA21322000F04DFF0123A0
:10175000029318230193002300930023574A4FF468
:1017600082715A2001F0F8FBA1E0002302931023BC
:101770000193002300934FF6FF73514A0A21002082
:1017800001F0EAFB0023029310230193002300934E
:101790004FF6FF734B4A1E21002001F0DDFB0023B2
:1017A000029310230193002300934FF6FF73464AE0
:1017B0003221002001F0D0FB00230293102301937B
:1017C000002300934FF6FF73404A4621002001F0AA
:1017D000C3FB384B1B88012B20D13D4B4FF47A7251
:1017E0001A60002000F0CEFE334B00221A604FF446
:1017F000FC6300934FF49673BE22FA21322000F06E
:10180000F3FE012302931823019300230093002386
:101810002A4A4FF482715A2001F09EFB254B5B88C7
:10182000012B20D12A4B4FF4FA721A60002000F0ED
:10183000A9FE214B00221A604FF4FC6300934FF481
:101840009673BE22FA21322000F0CEFE01230293CD
:1018500018230193002300930023184A4FF4827148
:101860005A2001F079FB134B9B88012B1FD1184B99
:1018700064221A60002000F085FE0F4B00221A60DF
:101880004FF4FC6300934FF49673BE22C8213220BC
:1018900000F0AAFE01230293182301930023009372
:1018A0000023064A4FF482715A2001F055FBBD46D1
:1018B00080BD00BF680A002004010020F4CF0008AA
:1018C00030D0000838D0000844D0000828D00008E4
:1018D0000000002080B588B004AF78607B68FB60B2
:1018E0000123BB600023029318230193002300937C
:1018F0004FF6FF73664A0A210F2001F02DFB0023EB
:10190000029318230193002300934FF6FF73614A5B
:101910000A21502001F020FB002302931823019399
:10192000002300934FF6FF735B4A0A21AA2001F0BF
:1019300013FB9CE0BB68013B9BB21A469200134428
:101940009B009BB2323399B2FB681B689AB210239A
:101950000293002301934FF6FF73009304230F209B
:1019600001F000F8BB68013B9BB21A469200134499
:101970009B009BB2323399B2FB685B689AB210232A
:101980000293002301934FF6FF7300930423532027
:1019900000F0E8FFFB689B68002B16D1BB68013B99
:1019A0009BB21A46920013449B009BB2323399B209
:1019B0000023029310230193002300934FF6FF733B
:1019C000364AAA2001F0C8FA4BE0FB689B68012B5D
:1019D00016D1BB68013B9BB21A46920013449B0090
:1019E0009BB2323399B20023029310230193002358
:1019F00000934FF6FF732A4AAA2001F0ADFA30E0B7
:101A0000FB689B68022B16D1BB68013B9BB21A4650
:101A1000920013449B009BB2323399B2002302938D
:101A200010230193002300934FF6FF731D4AAA2051
:101A300001F092FA15E0BB68013B9BB21A46920096
:101A400013449B009BB2323399B2002302931023BC
:101A50000193002300934FF6FF73134AAA2001F06D
:101A60007BFAFB68DB68FB60BB680133BB60FB682B
:101A7000002B08D0BB685A1E13469B0013449B00E2
:101A8000F92B7FF757AF00BF1037BD4680BD00BFB1
:101A90004CD0000850D0000858D0000860D0000892
:101AA00068D0000870D0000878D00008F0B59FB06A
:101AB00004AF4D4B1B68052B00F26E8201A252F859
:101AC00023F000BF2F1B0008C11B0008111F0008D6
:101AD000231B0008291B0008DD1A0008434B1B8B41
:101AE000012B40F05B82002000F04CFD4FF4FC63C2
:101AF00000934FF49673BE22FA21322000F074FD59
:101B00000123029318230193002300930023384AF2
:101B10004FF482715A2001F01FFA334B00221A60F1
:101B20003CE2FFF7F3FC40E2FFF7FAFD3DE201F093
:101B30006BFCFFF747FC2D4B9B8B012B05D1002045
:101B400000F020FD284B03221A60284B1B8B012B31
:101B500005D1002000F016FD234B04221A60234B10
:101B6000DB8B012B0AD1002000F00CFD214B1B6800
:101B70001846FFF7AFFE1C4B05221A6004F046F82A
:101B80000346002B00F00C82174B01221A601A4BFF
:101B90001A681A4B1B78381D19490AF065F8194B59
:101BA00000221A60002000F0EDFC02F089F901F03B
:101BB00035FDFFF7C7FB4FF47A7002F0D9FCEFE177
:101BC000114B1B88012B40F0B4804FF47A7002F067
:101BD000CFFC0E4B1B68002B1AD1012001F01AFB21
:101BE0000A4B01221A6019E004010020680A002053
:101BF000F4CF000828010020080100200400002084
:101C000080D0000810010020980900202001002049
:101C1000002001F0FFFAA54B00221A60A44B1B68BC
:101C20000133A34A1360A24B1B68A24A1360A24B64
:101C30001B68012B15D19E4B1968A04B83FB012318
:101C40005A10CB17D21A13469B001344CA1A002A03
:101C500007D19B4B1B68002B01D101F0F9FF02F06B
:101C6000A5F9984B1B68032B08D1974B1B68013BC8
:101C7000954A1360944B1B688E4A13608D4B19680C
:101C8000924B83FB01230B445A11CB17D21A1346F4
:101C90001B019B1A9B00CA1A884B83FB02139910E5
:101CA000D317C81A03469B0003445B00D01A0022D6
:101CB000032101F08BFA7F4B1968844B83FB0123CE
:101CC0000B445A11CB17D21A13461B019B1A9B00C7
:101CD000CA1A7A4B83FB02139910D317CB1A00222E
:101CE0000221184601F072FA724B1B68774A82FB98
:101CF00003121A445211DB17D21A704B83FB0213E2
:101D00009910D317C81A03469B0003445B00D01AEE
:101D10000022012101F05AFA664B1B686C4A82FBD3
:101D200003129211DB17D31A00220021184601F08A
:101D30004DFA03F08FFF0346002B0BD0654B0022BA
:101D40001A60654B01221A60644B01221A60644BD1
:101D500001221A6003F0A1FF0346002B0BD05D4B5C
:101D600001221A605C4B00221A605C4B01221A604F
:101D70005B4B01221A6003F0B5FF0346002B0BD02A
:101D8000544B01221A60544B01221A60534B00221B
:101D90001A60534B01221A6003F0C9FF0346002B5F
:101DA0000BD04C4B01221A604B4B01221A604B4B5B
:101DB00001221A604A4B00221A6002F0CBFA01F0AD
:101DC000A9FE484B1B88012B0DD1474B1B689BB2CA
:101DD000184602F0B1FB01F09BFF01F093FC01F00B
:101DE00099FE01F0B7FC414B1B68012B05D003F0B5
:101DF000E7FF0346002B00F0D5803D4B02221A601E
:101E00003C4B19683C4B1B781A462E4B1B683B48D1
:101E100001F006F93A4B01221A60364B1D68364B29
:101E20001B781E46224B1B68284A82FB03121A4469
:101E30005211DB17D01A1E4B1A68244B83FB021376
:101E400013445911D317C91A0B461B015B1A9B0087
:101E5000D11A2C4B1B783C1D029301910090334604
:101E60002A462949204609F0FFFE254B00221A6028
:101E7000002000F087FB4FF4FC6300934FF496734F
:101E8000BE22FA21322000F0AFFB01230293182377
:101E900001930023009300231C4A4FF482715020C9
:101EA00001F05AF8114B00221A607BE0200100205B
:101EB000100100201C0100201401002067666666E6
:101EC000180100200C010020080000208988888863
:101ED000B5814E1B280000202C000020340000207B
:101EE0003000002092090020000000208809002016
:101EF000040100200801002084090020280100209E
:101F0000240100200400002094D00008C0D0000864
:101F1000FFF758FA01F044FC264B9B8B012B05D1AF
:101F2000002000F02FFB244B03221A60214B1B8B57
:101F3000012B05D1002000F025FB1F4B04221A6065
:101F40001C4BDB8B012B0AD1002000F01BFB1B4B31
:101F50001B681846FFF7BEFC174B05221A6003F0FA
:101F60000BFF0346002B1FD0154B1A68154B1B782F
:101F7000381D154909F078FE144B00221A600E4BEB
:101F800001221A60002000F0FDFA01F099FF01F033
:101F900045FBFFF7D7F907E000BF06E000BF04E00C
:101FA00000BF02E000BF00E000BF00BF6C37BD46CD
:101FB000F0BD00BF680A00200401002028010020B5
:101FC000080100200400002080D00008100100203B
:101FD00080B58EB000AF07F11C0300221A605A6072
:101FE0009A60DA601A615A619A613B4600221A606F
:101FF0005A609A60DA601A615A619A612F4B4FF009
:1020000020421A602D4B2E4A5A602C4B00229A60B7
:102010002A4B0022DA60294B00221A61274B10223A
:102020005A61264B00229A61244B0022DA61234B2D
:1020300000221A62214B00225A62204B4FF4805238
:102040009A621E4B0022DA621C4B4FF480421A63E4
:102050001A4B00225A63194B00229A63174B002235
:102060005A640F23FB610F233B623C237B620023F6
:10207000BB621023FB6211233B6300237B630823B5
:102080003B600F237B600923BB600023FB601023B0
:102090003B6111237B610023BB613A4607F11C03BE
:1020A0001946064807F02CFB0346002B01D001F02F
:1020B000A5F900BF3837BD4680BD00BF880A0020A3
:1020C000040100A080B586B000AF3B1D00221A605D
:1020D0005A609A60DA601A611C4B1B68002B31D180
:1020E0001A4B01221A6000233B60194B9B6B184A64
:1020F00043F001039363164B9B6B03F001033B60BA
:102100003B684FF688737B600223BB600023FB6053
:1021100003233B610C237B613B1D19460D4804F0F2
:1021200045FF4CF2B3737B600223BB600023FB606E
:1021300003233B610C237B613B1D1946064804F0D9
:1021400035FF00E000BF1837BD4680BD2C010020E0
:102150000038024000100240000C024080B582B0FE
:1021600000AF7860FFF7AEFF00BF0837BD4680BD07
:1021700080B58EB000AF07F1240300221A605A60C8
:102180009A60DA601A6100233B627E4B1B6B7D4ACA
:1021900043F0100313637B4B1B6B03F010033B6294
:1021A0003B6A0023FB61774B1B6B764A43F00403C9
:1021B0001363744B1B6B03F00403FB61FB69002387
:1021C000BB61704B1B6B6F4A43F0200313636D4B75
:1021D0001B6B03F02003BB61BB6900237B61694B70
:1021E0001B6B684A43F080031363664B1B6B03F061
:1021F00080037B617B6900233B61624B1B6B614AFF
:1022000043F0010313635F4B1B6B03F001033B615E
:102210003B690023FB605B4B1B6B5A4A43F0020394
:102220001363584B1B6B03F00203FB60FB68002336
:10223000BB60544B1B6B534A43F008031363514B71
:102240001B6B03F00803BB60BB6800237B604D4B36
:102250001B6B4C4A43F0400313634A4B1B6B03F068
:1022600040037B607B6800227021474805F052F8EC
:1022700000224FF40851454805F04CF800224FF475
:10228000E071434805F046F800224FF48071414860
:1022900005F040F8002208213F4805F03BF8702384
:1022A0007B620123BB620023FB6200233B6307F1D7
:1022B00024031946344804F079FE4FF408537B6236
:1022C0000123BB620023FB6200233B6307F124036D
:1022D00019462E4804F06AFEC0237B620023BB62CD
:1022E0000023FB6207F1240319462A4804F05EFE2E
:1022F00030237B620023BB620023FB6207F12403CF
:102300001946224804F052FE4FF4E0737B62012329
:10231000BB620023FB6200233B6307F124031946E1
:102320001B4804F043FE4FF488537B620023BB62DA
:102330000123FB6207F124031946144804F036FE1A
:102340004FF480737B620123BB620023FB62002396
:102350003B6307F1240319460E4804F027FE0823C7
:102360007B620123BB620023FB6200233B6307F116
:1023700024031946084804F019FE00BF3837BD464B
:1023800080BD00BF0038024000100240000802403B
:102390000018024000000240000C024080B500AF6F
:1023A000124B134A1A60114B124A5A600F4B00220B
:1023B0009A600E4B0022DA600C4B4FF480421A6197
:1023C0000A4B00225A61094B00229A61074B0022F6
:1023D000DA61064B00221A62044804F0B5FF034696
:1023E000002B01D001F00AF800BF80BDD80A002000
:1023F00000540040A086010080B58AB000AF78602C
:1024000007F1140300221A605A609A60DA601A61B8
:102410007B681B68194A93422BD100233B61184B00
:102420001B6B174A43F002031363154B1B6B03F03E
:1024300002033B613B69C0237B611223BB61002324
:10244000FB6103233B6204237B6207F114031946FB
:102450000C4804F0ABFD0023FB60094B1B6C084AE1
:1024600043F400131364064B1B6C03F40013FB606E
:10247000FB6800BF2837BD4680BD00BF0054004048
:10248000003802400004024080B483B000AF03462D
:10249000FB80044AFB88138000BF0C37BD465DF803
:1024A000047B7047FEFF0F6080B483B000AF03462B
:1024B000FB80044AFB88538000BF0C37BD465DF8A3
:1024C000047B7047FEFF0F6080B483B000AF064B03
:1024D0005B889BB2FB80FB889BB218460C37BD46DD
:1024E0005DF8047B704700BFFEFF0F6090B583B0BE
:1024F00000AF0446084611461A462346FB800346B1
:10250000BB800B467B8013463B802A20FFF7BCFF35
:10251000FB881B0A9BB21846FFF7C6FFFB88DBB29D
:102520009BB21846FFF7C0FF7B881B0A9BB2184678
:10253000FFF7BAFF7B88DBB29BB21846FFF7B4FF08
:102540002B20FFF7A1FFBB881B0A9BB21846FFF7A1
:10255000ABFFBB88DBB29BB21846FFF7A5FF3B88F9
:102560001B0A9BB21846FFF79FFF3B88DBB29BB26A
:102570001846FFF799FF2C20FFF786FF00BF0C37A6
:10258000BD4690BD80B584B000AF0346FB80154BBF
:102590001B88013B9AB2134B5B88013B9BB2002125
:1025A0000020FFF7A3FF0023FB8111E00023BB8184
:1025B00006E0FB881846FFF777FFBB890133BB8134
:1025C000084B5B88BA899A42F3D3FB890133FB81BC
:1025D000044B1B88FA899A42E8D300BF00BF10372A
:1025E000BD4680BD2C0B002090B585B000AF0446E1
:1025F000084611461A462346FB800346BB800B461D
:102600007B8013463B807B88013B9AB23B88013B31
:102610009BB2B988F888FFF769FFBB88FB8110E09F
:10262000FB88BB8106E03B8C1846FFF73DFFBB896A
:102630000133BB81BA897B889A42F4D3FB89013389
:10264000FB81FA893B889A42EAD300BF00BF143766
:10265000BD4690BD80B582B000AF0346FB800B46FF
:10266000BB8013467B80BB88FA88B988F888FFF75F
:102670003DFF7B881846FFF717FF00BF0837BD46B0
:1026800080BD90B58DB000AF0446084611461A468D
:102690002346FB800346BB800B467B8013463B8072
:1026A0000023BB6200237B627A88FB88D31A3B62DB
:1026B0003A88BB88D31AFB61FB88FB60BB88BB6090
:1026C0003B6A002B02DD01237B610BE03B6A002BA0
:1026D00002D100237B6105E04FF0FF337B613B6A51
:1026E0005B423B62FB69002B02DD01233B610BE097
:1026F000FB69002B02D100233B6105E04FF0FF3363
:102700003B61FB695B42FB613A6AFB699A4202DD0D
:102710003B6ABB6101E0FB69BB610023FB852BE0E9
:10272000FB689BB2BA6891B2B7F840201846FFF731
:1027300091FFBA6A3B6A1344BB627A6AFB6913442D
:102740007B62BA6ABB699A4207DDBA6ABB69D31A6F
:10275000BB62FA687B691344FB607A6ABB699A4280
:1027600007DD7A6ABB69D31A7B62BA683B69134496
:10277000BB60FB8D0133FB85FB8DBA699A42CFDAD2
:1027800000BF00BF3437BD4690BD000090B587B094
:1027900000AF0446084611461A462346FB8003460E
:1027A000BB800B46FB7013463B8000237B75FB8888
:1027B0003B8297F82C305B08FB73FB7BDB08DBB2BA
:1027C0001A46FB7B03F00703DBB2002B14BF012387
:1027D0000023DBB213449AB297F82C309BB212FB61
:1027E00003F3BB81FB78203BFB70FB7B9AB2FB8839
:1027F00013449BB2013B9CB297F82C309AB2BB8831
:1028000013449BB2013B9BB2B988F8882246FFF77C
:102810006DFE00237B827AE097F82C300C2B28D0B9
:1028200097F82C30102B08D1FA787B8A3C4912019A
:102830000A4413441B78FB751BE097F82C30182BC7
:102840000BD1FA78798A374813465B0013441B0191
:1028500003440B441B78FB750BE097F82C30202BBE
:102860005AD1FA787B8A304992010A4413441B7882
:10287000FB750023BB7544E097F83030002B20D166
:10288000FA7DBB7D42FA03F303F00103002B04D071
:102890003B881846FFF708FE03E03B8D1846FFF71C
:1028A00003FE7B7D01337B757B7DFA7BB3FBF2F10D
:1028B00002FB01F29B1ADBB2002B1FD100237B75B8
:1028C00022E0FA7DBB7D42FA03F303F00103002B03
:1028D00005D03A88B988FB881846FFF7BBFEFB880D
:1028E0000133FB80FA883B8AD21AFB7B9A4205D1DE
:1028F0003B8AFB80BB880133BB8005E0BB7D013395
:10290000BB75BB7D072BB7D97B8A01337B827A8A63
:10291000BB899A4280D300E000BF1C37BD4690BD02
:10292000B4D30008A4D9000874EB000880B485B0C3
:1029300000AF03460A46FB711346BB710123FB60DF
:1029400004E0FA79FB6802FB03F3FB60BB795A1ED3
:10295000BA71002BF5D1FB6818461437BD465DF8F7
:10296000047B704790B589B004AF04460846114611
:102970001A462346FB800346BB800B467B801346EA
:102980007B700023BB7397F828305B087B730023B0
:10299000FB7359E07C887A78FB7BD31ADBB2013B6E
:1029A000DBB219460A20FFF7C1FF0346B4FBF3F17F
:1029B0002A4BA3FB0123DA0813469B0013445B0058
:1029C000CA1A13463B73BB7B002B21D1FA7B7B7861
:1029D000013B9A421CDA3B7B002B17D1FB7B9AB25E
:1029E0007B7B9BB212FB03F39AB2FB88134498B231
:1029F0003A8CB9880023029397F828300193BB8C56
:102A0000009313462022FFF7C1FE1AE00123BB7397
:102A1000FB7B9AB27B7B9BB212FB03F39AB2FB88DF
:102A2000134498B23B7B3033DAB23C8CB988002334
:102A3000029397F828300193BB8C00932346FFF74D
:102A4000A5FEFB7B0133FB73FA7B7B789A42A1D313
:102A500000BF00BF1437BD4690BD00BFCDCCCCCC6D
:102A600080B483B000AF0346FB71FB791B09DBB276
:102A700003F00303DBB2002B07D00A4B4FF4A07224
:102A80001A80084BF0225A8006E0064BF0221A808A
:102A9000044B4FF4A0725A8000BF0C37BD465DF85E
:102AA000047B70472C0B002080B500AF00224FF450
:102AB0000051AA4804F02EFC4FF4FA7003F062FBB8
:102AC00001224FF40051A54804F024FC4FF4FA70A1
:102AD00003F058FB0020FFF7C3FFD320FFF7D4FC1F
:102AE000FFF7F2FC03461A469D4B9A80FFF7ECFC79
:102AF00003461A469A4B9A80FFF7E6FC03461A46AD
:102B0000974B9A80964B9B881B029AB2944B9A8063
:102B1000FFF7DAFC03461A46914B9B8813439AB29F
:102B20008F4B9A80CF20FFF7AFFC0020FFF7BCFC53
:102B3000C120FFF7B9FC3020FFF7B6FCED20FFF70E
:102B4000A3FC6420FFF7B0FC0320FFF7ADFC1220CC
:102B5000FFF7AAFC8120FFF7A7FCE820FFF794FC11
:102B60008520FFF7A1FC1020FFF79EFC7A20FFF7DD
:102B70009BFCCB20FFF788FC3920FFF795FC2C202D
:102B8000FFF792FC0020FFF78FFC3420FFF78CFC4E
:102B90000220FFF789FCF720FFF776FC2020FFF7E3
:102BA00083FCEA20FFF770FC0020FFF77DFC00208B
:102BB000FFF77AFCC020FFF767FC1B20FFF774FCCF
:102BC000C120FFF761FC0120FFF76EFCC520FFF775
:102BD0005BFC3020FFF768FC3020FFF765FCC72066
:102BE000FFF752FCB720FFF75FFC3620FFF74CFCE5
:102BF0000820FFF759FC3A20FFF746FC5520FFF765
:102C000053FCB120FFF740FC0020FFF74DFC1A20D9
:102C1000FFF74AFCB620FFF737FC0A20FFF744FC19
:102C2000A220FFF741FCF220FFF72EFC0020FFF767
:102C30003BFC2620FFF728FC0120FFF735FCE020B5
:102C4000FFF722FC0F20FFF72FFC2A20FFF72CFCB8
:102C50002820FFF729FC0820FFF726FC0E20FFF7AD
:102C600023FC0820FFF720FC5420FFF71DFCA920BF
:102C7000FFF71AFC4320FFF717FC0A20FFF714FCAC
:102C80000F20FFF711FC0020FFF70EFC0020FFF7DC
:102C90000BFC0020FFF708FC0020FFF705FCE120FB
:102CA000FFF7F2FB0020FFF7FFFB1520FFF7FCFB0F
:102CB0001720FFF7F9FB0720FFF7F6FB1120FFF7BE
:102CC000F3FB0620FFF7F0FB2B20FFF7EDFB562070
:102CD000FFF7EAFB3C20FFF7E7FB0520FFF7E4FBEB
:102CE0001020FFF7E1FB0F20FFF7DEFB3F20FFF78F
:102CF000DBFB3F20FFF7D8FB0F20FFF7D5FB2B2096
:102D0000FFF7C2FB0020FFF7CFFB0020FFF7CCFB53
:102D10000120FFF7C9FB3F20FFF7C6FB2A20FFF782
:102D2000B3FB0020FFF7C0FB0020FFF7BDFB002036
:102D3000FFF7BAFBEF20FFF7B7FB1120FFF7A4FB6B
:102D4000782003F01FFA2920FFF79EFB01224FF4A1
:102D50008071044804F0DEFA00BF80BD0008024024
:102D60002C0B00200000024080B584B000AFF8605A
:102D7000B9607A603B60FB689AB27B689BB213448F
:102D800098B2BB689AB23B689BB213449BB23A8B31
:102D90001946FFF75FFCFB689AB27B689BB2D31AB7
:102DA00098B2BB689AB23B689BB213449BB23A8B11
:102DB0001946FFF74FFCFB689AB27B689BB213443D
:102DC00098B2BB689AB23B689BB2D31A9BB23A8B5B
:102DD0001946FFF73FFCFB689AB27B689BB2D31A97
:102DE00098B2BB689AB23B689BB2D31A9BB23A8B3B
:102DF0001946FFF72FFCFB689AB23B689BB213445D
:102E000098B2BB689AB27B689BB213449BB23A8B70
:102E10001946FFF71FFCFB689AB23B689BB2D31AB6
:102E200098B2BB689AB27B689BB213449BB23A8B50
:102E30001946FFF70FFCFB689AB23B689BB213443C
:102E400098B2BB689AB27B689BB2D31A9BB23A8B9A
:102E50001946FFF7FFFBFB689AB23B689BB2D31A97
:102E600098B2BB689AB27B689BB2D31A9BB23A8B7A
:102E70001946FFF7EFFB00BF1037BD4680BD80B598
:102E80008AB002AFF860B9603B601346FB80002354
:102E9000FB613B68BB613B685B00C3F103033B61C3
:102EA000BB6A002B4FD029E0FB697B610AE0FB88FD
:102EB00000937B69FA69B968F868FFF755FF7B6989
:102EC00001337B617A69BB699A42F0DD3B69002B73
:102ED00006DAFB699A003B69134406333B610AE05A
:102EE000FA69BB69D31A9A003B6913440A333B6100
:102EF000BB69013BBB61FB690133FB61FA69BB69DB
:102F00009A42D1DD23E0FB880093BB69FA69B96876
:102F1000F868FFF729FF3B69002B06DAFB699A0086
:102F20003B69134406333B610AE0FA69BB69D31A73
:102F30009A003B6913440A333B61BB69013BBB61A7
:102F4000FB690133FB61FA69BB699A42DBDD00BFB3
:102F50002037BD4680BD000090B58BB004AFBA608D
:102F60001A460346FB810B46BB811346FB80FB8957
:102F7000BB820023FB7548E0FB7D002B45D1FA891D
:102F8000264B1B88194697F82C305B08DBB2CB1A0E
:102F90009A423FDCBA89214B5B88194697F82C305E
:102FA000CB1A9A4236DCBB681B78802B02D90123EE
:102FB000FB752AE0BB681B780D2B0BD197F82C30E2
:102FC0009AB2BB891344BB81BB8AFB81BB680133C6
:102FD000BB6017E0BB681A78FC88B989F88997F854
:102FE0003030029397F82C3001933B8D00932346A9
:102FF000FFF7CCFB97F82C305B08DBB29AB2FB8969
:103000001344FB81BB680133BB60BB681B78002B9A
:10301000B2D100E000BF1C37BD4690BD2C0B002094
:1030200080B586B000AFF860B9607A603B60102070
:1030300008F010FD03463B613B69002B36D03B692D
:10304000BA681A603B697A685A603B693A689A6064
:103050003B690022DA60FB681B68002B05D0FB6827
:103060001B685B687A689A4207DDFB681A683B69EF
:10307000DA60FB683A691A6019E0FB681B687B61DB
:1030800002E07B69DB687B617B69DB68002B05D034
:103090007B69DB685B687A689A42F2DD7B69DA6893
:1030A0003B69DA607B693A69DA6000E000BF183793
:1030B000BD4680BD80B500AF3F4B1B88DBB29AB2E6
:1030C0003D4B1A803D4B1B683D4AD35C1B021AB234
:1030D000394B1B881BB213431BB29AB2364B1A8072
:1030E000364B1B68032B47D801A252F823F000BFD0
:1030F000013100081F3100083D3100085B31000834
:103100002D4B1B8843F0B0039AB22B4B1A802A4BED
:103110001B8823F040039AB2274B1A802DE0264BE0
:103120001B8843F0D0039AB2234B1A80224B1B8892
:1031300023F020039AB2204B1A801EE01E4B1B88FE
:1031400043F0E0039AB21C4B1A801B4B1B8823F000
:1031500010039AB2184B1A800FE0174B1B8843F0EC
:1031600070039AB2144B1A80134B1B8823F0800310
:103170009AB2114B1A8000E000BF104B1B6801335C
:103180005A4203F0030302F0030258BF53420B4AB2
:103190001360002240210B4804F0BCF801230222F6
:1031A0000549094805F08DFD01224021054804F03C
:1031B000B1F800BF80BD00BF1A0000203001002020
:1031C0000C00002000180240680B002080B485B07D
:1031D00000AFF860B9601346FB71FB68002B0EDB93
:1031E000FB68092B0BDC094AFB6813441A78FB794E
:1031F000D31AD9B2064ABB6813440A461A7000BFF4
:103200001437BD465DF8047B704700BF10000020F6
:103210000C00002080B483B000AF0346FB71FB7943
:10322000012B07D10A4B1B8823F008039AB2084BE5
:103230001A8006E0064B1B8843F008039AB2044B41
:103240001A8000BF0C37BD465DF8047B704700BF95
:103250001A00002080B500AF02F022FF00F032F823
:10326000FEF786FF01F0C4FC01F0A2FAFEF7B0FE03
:10327000FFF794F801F008FDFEF744F8FDF700FEB3
:1032800001F066FC02F002FE02F02AFE00F084F873
:10329000642001F051F90A2001F086F90A2001F0BA
:1032A0009FF900BF064B1B88002BFBD0044B00226C
:1032B0001A8002F077FCFDF7AFFFFEF7F7FBF0E7AF
:1032C0008C09002080B594B000AF07F120033022B4
:1032D0000021184608F0C6FB07F10C0300221A6013
:1032E0005A609A60DA601A610023BB60284B1B6C3D
:1032F000274A43F080531364254B1B6C03F0805323
:10330000BB60BB6800237B60224B1B68214A43F4EF
:10331000804313601F4B1B6803F480437B607B6812
:1033200002233B620123FB6210233B630223BB6346
:103330000023FB6308233B64A8237B640223BB6454
:103340000423FB6407F12003184604F0BDFF034685
:10335000002B01D000F052F80F23FB6002233B61E9
:1033600000237B614FF4A053BB614FF4A053FB617A
:1033700007F10C030521184605F01EFA0346002B41
:1033800001D000F03BF800BF5037BD4680BD00BF04
:10339000003802400070004080B584B004AF01F0F6
:1033A000A1F8FDF72DFFFDF7A3FFFFF77DFB02F06E
:1033B000E9FB322001F0A4F802F026FD0020FFF71F
:1033C000E1F84FF4FC6300934FF49673BE22FA21A8
:1033D0003220FFF709F901230293182301930023F8
:1033E00000930023044A4FF482715A20FFF7B4FD82
:1033F00000BFBD4680BD00BFC8D0000880B400AF8C
:1034000072B600BFFEE7000080B584B004AF0123B0
:103410000293182301934FF6FF7300934FF4FC635C
:103420006D4A0A213C20FFF797FD002302931023E9
:103430000193002300934FF6FF73684A3C21282034
:10344000FFF78AFD664B1B689AB210230293002394
:1034500001934FF6FF73009304233C217820FFF77C
:1034600081FA0023029310230193002300934FF667
:10347000FF735C4A5A212820FFF76EFD5A4B1B68E8
:10348000002B0CD1002302931023019300230093FF
:103490004FF6FF73554A5A217820FFF75DFD524BD6
:1034A0001B68012B0CD100230293102301930023EE
:1034B00000934FF6FF734E4A5A217820FFF74CFDD8
:1034C000494B1B68022B0CD100230293102301935C
:1034D000002300934FF6FF73464A5A217820FFF7E6
:1034E0003BFD414B1B68032B0CD10023029310239F
:1034F0000193002300934FF6FF733F4A5A2178202F
:10350000FFF72AFD00230293102301930023009369
:103510004FF6FF73394A78212820FFF71DFD384BFD
:103520001B68B3F57A7F0CD100230293102301931B
:10353000002300934FF6FF73324A78217820FFF77B
:103540000BFD2F4B1B68B3F5FA7F0CD100230293C0
:1035500010230193002300934FF6FF732A4A78212A
:103560007820FFF7F9FC264B1B68642B0CD1002355
:10357000029310230193002300934FF6FF73234A15
:1035800078217820FFF7E8FC0023029310230193B1
:10359000002300931F231E4A9B212820FFF7DCFCF9
:1035A0000023029310230193002300931F23194A41
:1035B000B4212820FFF7D0FC0023029310230193AD
:1035C000002300931F23144ACD212820FFF7C4FCB9
:1035D00000BFBD4680BD00BFC8D10008D4D10008DF
:1035E00008010020E0D100080C010020ECD1000807
:1035F000F4D10008FCD1000804D200080CD2000865
:103600000000002018D2000820D2000828D20008AC
:1036100030D2000844D2000858D2000880B584B0E7
:1036200004AF4FF6FF730093C823F022002100205F
:10363000FEF7DAFF1F230093FA239622D2215A20A5
:10364000FEF7D2FF01230293182301931F23009357
:103650004FF6FF73274AD7216E20FFF77DFC1F230B
:1036600000934FF4967396224FF482715A20FEF71E
:10367000BBFF01230293182301931F2300934FF6EE
:10368000FF731D4A40F209115F20FFF765FC1F23FD
:1036900000934FF4967350224FF482711420FEF77A
:1036A000A3FF01230293182301931F2300934FF6D6
:1036B000FF73124A40F209111C20FFF74DFC1F2333
:1036C00000934FF49673DC224FF48271A020FEF732
:1036D0008BFF01230293182301931F2300934FF6BE
:1036E000FF73074A40F20911A520FFF735FC00BF20
:1036F000BD4680BD70D2000874D200087CD200089C
:1037000084D2000880B584B004AF0123029318234B
:1037100001934FF6FF7300934FF6FF730B4ACD21D1
:103720000020FFF719FC0A4B1B789AB2182302936A
:10373000002301934FF6FF7300930423E62100203A
:10374000FFF710F900BFBD4680BD00BF8CD2000856
:103750008409002080B584B004AF012302931823AC
:1037600001934FF6FF7300934FF6FF730A4ACD2182
:10377000AA20FFF7F1FB01230293182301934FF6D0
:10378000FF7300934FF6FF73044AE621AA20FFF768
:10379000E3FB00BFBD4680BD94D200089CD2000868
:1037A00080B584B004AF01230293182301934FF630
:1037B000FF7300934FF47843944A0A214620FFF7A1
:1037C000CBFB0023029310230193002300934FF6B9
:1037D000FF738F4AB4212820FFF7BEFB002302931A
:1037E00010230193002300934FF6FF73894A3C2175
:1037F0002820FFF7B1FB884B1B689AB21023029375
:10380000002301934FF6FF73009304233C2178209B
:10381000FFF7A8F8002302931023019300230093DD
:103820004FF6FF737D4A5A212820FFF795FB7C4B0A
:103830001B68002B0CD1002302931023019300235B
:1038400000934FF6FF73774A5A217820FFF784FBE5
:10385000734B1B68012B0CD100230293102301939F
:10386000002300934FF6FF736F4A5A217820FFF729
:1038700073FB6B4B1B68022B0CD1002302931023AC
:103880000193002300934FF6FF73684A5A21782072
:10389000FFF762FB624B1B68032B0CD100230293E2
:1038A00010230193002300934FF6FF73604A5A21BF
:1038B0007820FFF751FB002302931023019300238C
:1038C00000934FF6FF735B4A78212820FFF744FBF3
:1038D000594B1B68B3F57A7F0CD100230293102358
:1038E0000193002300934FF6FF73544A7821782008
:1038F000FFF732FB504B1B68B3F5FA7F0CD1002366
:10390000029310230193002300934FF6FF734C4A58
:1039100078217820FFF720FB474B1B68642B0CD1E4
:103920000023029310230193002300934FF6FF73AB
:10393000444A78217820FFF70FFB002302931023DD
:103940000193002300934FF6FF733F4A96212820EE
:10395000FFF702FB3D4B1B683D4A82FB03121A44F2
:103960005211DB17D31A9AB210230293002301934A
:103970004FF6FF730093022396215A20FEF7F2FFC1
:103980000023029310230193002300934FF6FF734B
:10399000304A96216E20FFF7DFFA2C4B1A682C4B29
:1039A00083FB021313445911D317C91A0B461B0189
:1039B0005B1A9B00D11A8AB2102302930023019351
:1039C0004FF6FF730093022396217820FEF7CAFF7B
:1039D000214B1B789AB210230293002301934FF6D8
:1039E000FF7300930223B4216420FEF7BBFF002382
:1039F000029310230193002300931F23174AD3211E
:103A00002820FFF7A9FA00BFBD4680BDA4D2000858
:103A10008CD20008D4D1000808010020E0D10008B1
:103A20000C010020ECD10008F4D10008FCD1000802
:103A300004D200080CD200080000002018D20008B0
:103A400020D2000828D20008B0D2000810010020BF
:103A500089888888B8D2000884090020BCD2000870
:103A600080B584B002AF78603960012300930523EC
:103A70004FF4FC6239687868FFF701FA00BF083735
:103A8000BD4680BD80B584B002AF78603960012347
:103A9000009305234FF4784239687868FFF7EFF90F
:103AA00000BF0837BD4680BD80B584B002AF7860E6
:103AB000396001230093052348F21F423968786872
:103AC000FFF7DDF900BF0837BD4680BD80B584B083
:103AD00002AF7860396001230093052348F2304239
:103AE00039687868FFF7CBF900BF0837BD4680BD5D
:103AF00080B584B002AF786039600123009305235C
:103B00004FF6FF7239687868FFF7B9F900BF0837D8
:103B1000BD4680BD80B582B000AF00237B608BE0E6
:103B200000233B6081E049497A6813469B001344B7
:103B30009B003A68134451F82330022B0FD17A6866
:103B400013469B0013445B00581D3A6813469B00C4
:103B500013445B0005331946FFF782FF62E03B49DF
:103B60007A6813469B0013449B003A68134451F84B
:103B70002330042B0FD17A6813469B0013445B005B
:103B8000581D3A6813469B0013445B0005331946E1
:103B9000FFF78AFF46E02D497A6813469B001344DD
:103BA0009B003A68134451F82330012B0FD17A68F7
:103BB00013469B0013445B00581D3A6813469B0054
:103BC00013445B0005331946FFF75CFF2AE01F49E9
:103BD0007A6813469B0013449B003A68134451F8DB
:103BE0002330032B0FD17A6813469B0013445B00EC
:103BF000581D3A6813469B0013445B000533194671
:103C0000FFF764FF0EE07A6813469B0013445B00E5
:103C1000581D3A6813469B0013445B000533194650
:103C2000FFF766FF3B6801333B603B68132B7FF770
:103C30007AAF7B6801337B607B68172B7FF770AFAF
:103C400000BF00BF0837BD4680BD00BF3401002063
:103C500080B483B000AF00237B6022E000233B6090
:103C600019E015497A6813469B0013449B003A6893
:103C7000134451F82330032B0AD10F497A681346B5
:103C80009B0013449B003A681344002241F8232010
:103C90003B6801333B603B68132BE2DD7B680133FB
:103CA0007B607B68172BD9DD00BF00BF0C37BD469A
:103CB0005DF8047B704700BF3401002080B483B0FE
:103CC00000AF00237B6016E000233B600DE00F494E
:103CD0007A6813469B0013449B003A681344002201
:103CE00041F823203B6801333B603B68132BEEDD3A
:103CF0007B6801337B607B68172BE5DD00BF00BF6D
:103D00000C37BD465DF8047B704700BF34010020CE
:103D100080B586B000AF634B1B68013B7B6114E04C
:103D2000614A7B6952F823205F497B69183351F857
:103D300023105E4813469B0013449B000B44002253
:103D400040F823207B69013B7B617B69002BE7DA2C
:103D5000554B1A68544B196E544813469B00134434
:103D60009B000B44002240F823204E4B1B68013B74
:103D70004D4A52F823304E4A13604A4B1B68013BB0
:103D8000494A183352F823304A4A1360454B1B689E
:103D9000013B454A52F82310474B1A68414B1B68B8
:103DA000013B0A44404941F823203E4B1B68013B3C
:103DB0003D4A183352F823103F4B5A68394B1B6861
:103DC000013B0A443849183341F82320354B1B681E
:103DD000013B354A52F82330384A1360314B1B6897
:103DE000013B314A183352F82330344A53602D4B8B
:103DF0001B68023B3B6120E02B4A3B6952F82330B1
:103E0000BB60294A3B69183352F823307B60284B4A
:103E10001A6825493B6941F82320264B1A68224934
:103E20003B69183341F82320214ABB681360214ABB
:103E30007B6813603B69013B3B613B69002BDBDA2C
:103E4000184B1B68023BFB6014E0174AFB6852F8F2
:103E500023201549FB68183351F8231013481346E3
:103E60009B0013449B000B44022240F82320FB6874
:103E7000013BFB60FB68002BE7DA00F019FA00F069
:103E8000C1FA0E4B1A680D4B5968084813469B003F
:103E900013449B000B44042240F8232000BF183732
:103EA000BD4680BD1C000020B40800203401002065
:103EB0007409002078090020200000207C090020DF
:103EC00080B500AFFFF7FAFE164B02221A60154BC1
:103ED00002221A65144B00221A60134B00221A6644
:103EE000114B01225A60104B00225A660F4B0222DE
:103EF0001A600F4B01221A600D4B00225A600D4BC5
:103F000001221A600C4B01221A600C4B01221A602C
:103F10000B4B01221A600B4B00221A7000F014F8B0
:103F200000BF80BD34010020B40800201C00002028
:103F300020000020280000202C000020300000205D
:103F4000340000208409002080B582B000AF172023
:103F500000F09AF97860132000F096F9386007E0D5
:103F6000172000F091F97860132000F08DF9386087
:103F70000D497A6813469B0013449B003A6813442A
:103F800051F82330022BEBD007497A6813469B0087
:103F900013449B003A681344012241F8232000BFD8
:103FA0000837BD4680BD00BF3401002080B584B015
:103FB00000AF172000F068F9F860132000F064F9F2
:103FC000B86007E0172000F05FF9F860132000F0F8
:103FD0005BF9B860AB49FA6813469B0013449B0039
:103FE000BA68134451F82330022BEBD0A549FA6884
:103FF00013469B0013449B00BA68134451F82330C6
:10400000012BDFD0FB685A1C9E4913469B001344CA
:104010009B00BA68134451F82330022B0CD0FB6884
:104020005A1C984913469B0013449B00BA681344DA
:1040300051F82330012B4ED1FB685A1E914913468B
:104040009B0013449B00BA68134451F82330022BA1
:104050000CD0FB685A1E8B4913469B0013449B00EF
:10406000BA68134451F82330012B34D1BB68591C72
:104070008448FA6813469B0013449B000B4450F895
:104080002330022B0CD0BB68591C7E48FA681346BB
:104090009B0013449B000B4450F82330012B1AD192
:1040A000BB68591E7748FA6813469B0013449B006F
:1040B0000B4450F82330022B84D0BB68591E714842
:1040C000FA6813469B0013449B000B4450F82330BE
:1040D000012B3FF477AF6B49FA6813469B001344FA
:1040E0009B00BA681344032241F82320042000F007
:1040F000CBF8386000237B60BBE0042000F0C4F8FC
:1041000038603B68013B032B00F2B28001A252F8F9
:1041100023F000BF254100087B410008CD41000885
:104120001F420008FB685A1C564913469B00134463
:104130009B00BA68134451F82330022B00F0998099
:10414000FB685A1C4F4913469B0013449B00BA68F6
:10415000134451F82330012B00F08B80FB685A1C6C
:10416000484913469B0013449B00BA68134403223A
:1041700041F8232001237B607BE0FB685A1E414904
:1041800013469B0013449B00BA68134451F8233034
:10419000022B6ED0FB685A1E3A4913469B0013440B
:1041A0009B00BA68134451F82330012B61D0FB689F
:1041B0005A1E344913469B0013449B00BA681344AB
:1041C000032241F8232001237B6052E0BB68591C85
:1041D0002C48FA6813469B0013449B000B4450F88C
:1041E0002330022B45D0BB68591C2648FA68134679
:1041F0009B0013449B000B4450F82330012B38D014
:10420000BB68591C1F48FA6813469B0013449B0067
:104210000B44032240F8232001237B6029E0BB6884
:10422000591E1848FA6813469B0013449B000B4420
:1042300050F82330022B1CD0BB68591E1148FA6875
:1042400013469B0013449B000B4450F82330012B72
:104250000FD0BB68591E0B48FA6813469B001344E5
:104260009B000B44032240F8232001237B6000E0E5
:1042700000BF7B68002B3FF440AF00BF00BF10378A
:10428000BD4680BD3401002080B584B000AF7860A9
:1042900007F09AFC02467B68013392FBF3F103FBC3
:1042A00001F3D31AFB60FB6818461037BD4680BD8A
:1042B00080B400AF234B1B68172B03DC214B1B681A
:1042C000002B02DA204B01221A601E4B5B68132B75
:1042D00003DC1C4B5B68002B02DA1B4B01221A60CB
:1042E000184B1A68174B5968184813469B0013441B
:1042F0009B000B4450F82330022B02D1124B0122B9
:104300001A60104B1A680F4B5968104813469B00EF
:1043100013449B000B4450F82330032B02D10A4B6B
:1043200001221A600A4B1B68002B05D1064B0122A3
:104330001A60074BB4221A6000BFBD465DF8047BCB
:10434000704700BF7C09002088090020340100204C
:104350000800002080B400AF254B1B68002B0CD157
:10436000244B5B68002B08D1224B00221A60214BA2
:1043700001225A601E4B01221A601F4B1B68002B42
:104380000DD11C4B5B68002B09D11A4B00221A601F
:10439000184B4FF0FF325A60174B01221A60174B2F
:1043A0001B68002B0CD1134B1B68002B08D1114B41
:1043B00001221A600F4B00225A60104B01221A6032
:1043C0000F4B1B68002B0DD10A4B1B68002B09D12A
:1043D000084B4FF0FF321A60064B00225A60084B20
:1043E00001221A6000BFBD465DF8047B704700BF24
:1043F0002C00002020000020280000203000002099
:104400003400002080B582B000AF314B1A68304BC9
:104410005968304813469B0013449B000B4450F8E6
:104420002330012B50D12C4B1B780133DAB22A4BAD
:104430001A702A4B1B680133284A1360274B1B68EC
:10444000013B7B6016E07B68013B254A52F8232044
:1044500023497B6841F823207B68013B204A1833BD
:1044600052F823201E497B68183341F823207B68CB
:10447000013B7B607B68002BE5DC154B1B68184A11
:104480001360134B5B68164A136600233B6014E00D
:10449000134A3B6852F8232011493B68183351F8FE
:1044A00023100C4813469B0013449B000B4402222C
:1044B00040F823203B6801333B60084B1B683A6897
:1044C0009A42E5DBFFF740FD00BF0837BD4680BDDF
:1044D0007C09002034010020840900201C000020F9
:1044E000B408002080B500AF034805F005FA034882
:1044F00005F09AF900BF80BD500C0020080C002088
:1045000080B483B000AF0346FB80084AFB88138069
:10451000064B1A88064B1A80064B00221A8000BFF1
:104520000C37BD465DF8047B704700BF9009002042
:104530008E0900208C09002080B483B000AF0346B0
:10454000FB80084AFB881380064B1A88064B1A80AA
:10455000064B00221A8000BF0C37BD465DF8047B75
:10456000704700BF9609002094090020920900209E
:1045700080B483B000AF0346FB80084AFB881380F9
:10458000064B1A88064B1A80064B00221A8000BF81
:104590000C37BD465DF8047B704700BF9C090020C6
:1045A0009A0900209809002080B483B000AF034628
:1045B000FB80084AFB881380064B1A88064B1A803A
:1045C000064B00221A8000BF0C37BD465DF8047B05
:1045D000704700BFA2090020A00900209E0900200A
:1045E00080B483B000AF0346FB80084AFB88138089
:1045F000064B1A88064B1A80064B00221A8000BF11
:104600000C37BD465DF8047B704700BFAE09002043
:10461000AC090020AA09002080B582B000AF786004
:104620007B681B68B3F1804F7FD1424B1B88002B06
:1046300010D0404B1B88013B9AB23E4B1A803D4B39
:104640001B88002B06D13C4B01221A803B4B1A8859
:10465000384B1A803A4B1B88002B10D0384B1B88E4
:10466000013B9AB2364B1A80354B1B88002B06D182
:10467000344B01221A80344B1A88314B1A80334B49
:104680001B88002B10D0314B1B88013B9AB22F4B5B
:104690001A802E4B1B88002B06D12D4B01221A802D
:1046A0002C4B1A88294B1A802B4B1B88002B10D0BF
:1046B000294B1B88013B9AB2274B1A80264B1B883B
:1046C000002B06D1254B01221A80254B1A88224B3C
:1046D0001A80244B1B88002B10D0224B1B88013BD7
:1046E0009AB2204B1A801F4B1B88002B06D11E4B01
:1046F00001221A801D4B1A881A4B1A801C4B1B88EA
:10470000002B10D01A4B1B88013B9AB2184B1A8011
:10471000174B1B88002B06D1164B01221A80164B13
:104720001A88134B1A80FEF7C5FC00BF0837BD4638
:1047300080BD00BF8E0900208C0900209009002058
:104740009409002092090020960900209A0900206F
:10475000980900209C090020A00900209E09002043
:10476000A2090020A6090020A4090020A809002011
:10477000AC090020AA090020AE09002080B483B053
:1047800000AF0346FB80094B1B6800225A6200BF42
:10479000064B1B685A6AFB889A42F9D300BF00BFD8
:1047A0000C37BD465DF8047B704700BF080C002045
:1047B00080B500AF174B184A1A60164B4FF482723F
:1047C0005A60144B00229A60124B0022DA60114B9F
:1047D00000221A610F4B00225A610E4B4FF40072F7
:1047E0009A610C4B0022DA610A4B00221A62094BD3
:1047F00000225A62074B00229A62064B0A22DA62B2
:10480000044804F0D5F90346002B01D0FEF7F6FD6D
:1048100000BF80BD680B00200030014080B58AB029
:1048200000AF786007F1140300221A605A609A60A2
:10483000DA601A617B681B68194A93422BD1002306
:104840003B61184B5B6C174A43F480535364154B20
:104850005B6C03F480533B613B690023FB60114BAD
:104860001B6B104A43F0020313630E4B1B6B03F0E8
:104870000203FB60FB6838237B610223BB610023DA
:10488000FB6103233B6205237B6207F11403194696
:10489000054802F08BFB00BF2837BD4680BD00BF36
:1048A00000300140003802400004024080B483B070
:1048B00000AF00237B60104B5B6C0F4A43F48043D6
:1048C00053640D4B5B6C03F480437B607B68002377
:1048D0003B60094B1B6C084A43F080531364064B42
:1048E0001B6C03F080533B603B6800BF0C37BD4638
:1048F0005DF8047B704700BF0038024080B400AF11
:10490000FEE780B400AFFEE780B400AFFEE780B4FE
:1049100000AFFEE780B400AFFEE780B400AF00BF99
:10492000BD465DF8047B704780B400AF00BFBD4654
:104930005DF8047B704780B400AF00BFBD465DF8F2
:10494000047B704780B500AF01F0FCFB00BF80BD69
:1049500080B500AF024805F061F900BF80BD00BF1F
:10496000500C002080B500AF024806F0C1F800BF2F
:1049700080BD00BFFC0D002080B500AF024806F0EE
:10498000B7F800BF80BD00BF400E002080B500AF6B
:10499000024802F0CFF800BF80BD00BF080A002027
:1049A00080B400AF01231846BD465DF8047B704714
:1049B00080B582B000AF7860396007F021F8034617
:1049C00016221A604FF0FF3318460837BD4680BDE7
:1049D00080B582B000AF78604FF0FF317868FFF7A4
:1049E000E7FFFEE780B586B000AFF860B9607A6097
:1049F00000237B610AE0AFF300800146BB685A1CCC
:104A0000BA60CAB21A707B6901337B617A697B68CC
:104A10009A42F0DB7B6818461837BD4680BD80B5EA
:104A200086B000AFF860B9607A6000237B6109E06E
:104A3000BB685A1CBA601B781846AFF300807B69CC
:104A400001337B617A697B689A42F1DB7B681846A7
:104A50001837BD4680BD80B483B000AF78604FF09A
:104A6000FF3318460C37BD465DF8047B704780B4B1
:104A700083B000AF786039603B684FF400525A60F1
:104A8000002318460C37BD465DF8047B704780B4A0
:104A900083B000AF7860012318460C37BD465DF83F
:104AA000047B704780B485B000AFF860B9607A606D
:104AB000002318461437BD465DF8047B704700009C
:104AC00080B586B000AF7860144A154BD31A7B616D
:104AD0007B693B61134B1B68002B02D1114B124ABF
:104AE0001A60104B1A687B6813443A699A4207D2DD
:104AF00006F086FF03460C221A604FF0FF3309E0F0
:104B0000084B1B68FB60074B1A687B681344054A17
:104B10001360FB6818461837BD4680BD00000220B0
:104B200000040000B0090020980E002080B400AFFF
:104B3000064BD3F88830054A43F47003C2F8883036
:104B400000BFBD465DF8047B704700BF00ED00E08C
:104B500080B586B000AF07F1080300221A605A60E2
:104B60009A60DA603B4600221A605A601E4B1F4A68
:104B70001A601D4B53225A601B4B00229A601A4B3D
:104B80004FF6FF72DA60184B00221A61164B0022B2
:104B90005A61154B00229A61134804F0F5FD034653
:104BA000002B01D0FEF72AFC4FF48053BB6007F1C5
:104BB000080319460C4805F0FBF90346002B01D009
:104BC000FEF71CFC00233B6000237B603B4619463C
:104BD000054805F0EDFD0346002B01D0FEF70EFC65
:104BE00000BF1837BD4680BD080C00200000014002
:104BF00080B586B000AF07F1080300221A605A6042
:104C00009A60DA603B4600221A605A601D4B4FF0F2
:104C100080421A601B4B40F247325A60194B002207
:104C20009A60184B6322DA60164B00221A61154B0A
:104C300000229A61134804F0A7FD0346002B01D01F
:104C4000FEF7DCFB4FF48053BB6007F10803194605
:104C50000C4805F0ADF90346002B01D0FEF7CEFB62
:104C600000233B6000237B603B461946054805F066
:104C70009FFD0346002B01D0FEF7C0FB00BF183795
:104C8000BD4680BD500C002080B588B000AF3B1DF4
:104C900000221A605A609A60DA601A615A619A6159
:104CA0001E4B1F4A1A601D4B40F247325A601B4B85
:104CB00000229A60194B6322DA60184B00221A61B5
:104CC000164B00229A61154804F05EFD0346002B46
:104CD00001D0FEF793FB114804F07EFE0346002B43
:104CE00001D0FEF78BFB60237B600023BB600023B9
:104CF000FB6000237B613B1D00221946074805F03D
:104D000095F80346002B01D0FEF778FB034800F02E
:104D10005BF800BF2037BD4680BD00BFC00B002040
:104D2000001C004080B586B000AF78607B681B68CF
:104D3000224A93420ED100237B61214B5B6C204AB7
:104D400043F0010353641E4B5B6C03F001037B6172
:104D50007B692EE07B681B68B3F1804F16D100237E
:104D60003B61174B1B6C164A43F001031364144B51
:104D70001B6C03F001033B613B69002200211C20F6
:104D800001F061FD1C2001F07AFD12E07B681B68D8
:104D90000C4A93420DD10023FB60094B1B6C084A5F
:104DA00043F080031364064B1B6C03F08003FB602D
:104DB000FB6800BF1837BD4680BD00BF0000014042
:104DC00000380240001C004080B588B000AF786019
:104DD00007F10C0300221A605A609A60DA601A61C7
:104DE0007B681B68124A93421ED10023BB60114BA3
:104DF0001B6B104A43F0200313630E4B1B6B03F035
:104E00002003BB60BB684FF48073FB6002233B61EF
:104E100000237B610023BB610923FB6107F10C03C5
:104E20001946054802F0C2F800BF2037BD4680BDD4
:104E3000001C0040003802400014024080B584B0DD
:104E400000AF0346FB710023FB730023FB7325E0D7
:104E500097F90730002B06DA01224FF4007113484E
:104E600002F058FA05E000224FF400710F4802F0FA
:104E700051FAFB795B00FB7100224FF480710C4802
:104E800002F048FA0120FFF779FC01224FF480710B
:104E9000074802F03FFAFB7B0133FB73FB7B072BD8
:104EA000D6D900BF00BF1037BD4680BD0008024004
:104EB0000018024080B584B000AF0346FB710023A8
:104EC000FB730023BB8100224FF480712F4802F056
:104ED00021FA00224FF400712D4802F01BFA002243
:104EE00080212A4802F016FAFB791846FFF7A6FF40
:104EF0000620FFF743FC00224FF48071234802F0A4
:104F000009FA0120FFF73AFC01224FF480711F4893
:104F100002F000FA0120FFF731FC00224FF480710B
:104F20001A4802F0F7F90023FB731FE0BB895B000E
:104F3000BB8100224FF48071144802F0EBF901208C
:104F4000FFF71CFC01224FF48071104802F0E2F9D7
:104F50004FF480510E4802F0C5F90346002B02D0F1
:104F6000BB890133BB81FB7B0133FB73FB7B0F2BC5
:104F7000DCD9BB891B09BB8101228021034802F0D7
:104F8000C9F9BB8918461037BD4680BD00180240DC
:104F90000008024090B589B000AF0346FB710023C2
:104FA0007B830023FB830FE0FC8BFB791846FFF724
:104FB00081FF03461A46630007F120010B4423F8E2
:104FC000142CFB8B0133FB83FB8B042BECD90023CC
:104FD000FB833BE0FB8B0133BB8331E0FB8B5B004E
:104FE00007F12002134433F8142CBB8B5B0007F14C
:104FF00020010B4433F8143C9A421ED9FB8B5B0012
:1050000007F12002134433F8143C3B83BB8BFA8B2B
:105010005B0007F120010B4433F8141C530007F127
:10502000200213440A4623F8142CBB8B5B0007F1C3
:10503000200213443A8B23F8142CBB8B0133BB831F
:10504000BB8B042BCAD9FB8B0133FB83FB8B032B5C
:10505000C0D900237B830123FB830CE0FB8B5B0027
:1050600007F12002134433F8142C7B8B13447B8309
:10507000FB8B0133FB83FB8B032BEFD97B8B054A27
:10508000A2FB03235B083B833B8B18462437BD46BA
:1050900090BD00BFABAAAAAA80B584B000AF78606B
:1050A00039600C4B1B781846FFF774FF0346FB81F1
:1050B000094B1B781846FFF76DFF0346BB817B68E1
:1050C000FA891A803B68BA891A800123184610377A
:1050D000BD4680BD700000207100002080B586B004
:1050E00000AF7860396007F1120207F1140311462E
:1050F0001846FFF7D1FF0346FB75FB7D002B01D15E
:10510000002349E007F10E0207F11003114618468B
:10511000FFF7C2FF0346FB75FB7D002B01D1002387
:105120003AE03A8ABB8A9A4204D83B8A6333BA8A05
:10513000934208DABA8A3B8A9A422CD8BB8A6333F4
:105140003A8A934227DBFA897B8A9A4204D8FB8900
:1051500063337A8A934208DA7A8AFB899A421AD8A8
:105160007B8A6333FA89934215DBBB8A1A463B8AF2
:105170001344DA0F13445B109AB27B681A807B8A5F
:105180001A46FB891344DA0F13445B109AB23B684A
:105190001A80012300E0002318461837BD4680BD61
:1051A00090B585B002AF0346FB800B46BB8013462B
:1051B0007B80FB880C3B98B2FB880D339AB2BC888D
:1051C000B9887B8800932346FDF75BFABB880C3BCC
:1051D00099B2BB880D339CB2FA88F8887B8800931B
:1051E0002346FDF74EFAFB88013398B2BB880133A2
:1051F0009BB27A881946FDF72DFAFB88013B98B2DD
:10520000BB8801339BB27A881946FDF723FAFB88E5
:10521000013398B2BB88013B9BB27A881946FDF7EF
:1052200019FAFB88013B98B2BB88013B9BB27A8894
:105230001946FDF70FFAF888B9887A880023009399
:105240000623FDF71CFE00BF0C37BD4690BD0000D5
:1052500080B582B000AF0346FB714FF480714348C4
:1052600002F040F80346002B57D1FB79002B04D005
:105270003F494048FFF732FF3CE03D493D48FFF7DA
:105280002DFF0346002B35D03B4B93ED097A3A4B6B
:105290009B8907EE903AF8EEE77A27EE277A364BAD
:1052A000B3F92C3007EE903AF8EEE77A77EE277AEA
:1052B000FCEEE77A17EE903A9AB22F4B9A812E4B7A
:1052C00093ED0A7A2C4BDB8A07EE903AF8EEE77AF8
:1052D00027EE277A284BB3F92E3007EE903AF8EEF6
:1052E000E77A77EE277AFCEEE77A17EE903A9AB2F1
:1052F000214BDA82204B93F820305BB2002B2ADB63
:105300001D4BC02283F820201B4B9A891A4B9A828E
:10531000194BDA8A184BDA831DE0174B93F82030CB
:105320005BB2002B09DA144B93F8203003F07F03B3
:10533000DAB2114B83F820200DE00F4B00229A8245
:105340000D4B0022DA830C4B4FF6FF729A810A4B09
:105350004FF6FF72DA82084B93F8203023F07F0378
:10536000DBB218460837BD4680BD00BF00080240CA
:1053700052000020480000203C00002080B500AF13
:105380000E2205490020FBF71BFF00210E20FBF732
:10539000B7FE00BF80BD00BF6000002080B582B0B6
:1053A00000AF0023FB710E20FBF78EFE0346FB715E
:1053B000FB79002B06D10E2205490020FBF7E1FE08
:1053C000012300E0002318460837BD4680BD00BF1A
:1053D000600000200000000080B58EB004AF002304
:1053E00087F82730002387F82730614B1A88604BF5
:1053F0005B884FF6FF71009100210020FDF7F4F863
:1054000000230293102301934FF6FF7300934FF490
:105410007843584A28210520FDF79EFD002302937A
:10542000102301934FF6FF7300934FF47843524AD1
:1054300041210520FDF790FD0023029310230193E5
:105440004FF6FF7300934FF478434C4A5A210520DE
:10545000FDF782FD4FF4784214211420FFF7A0FEDF
:10546000474B002283F82020454B4FF000025A6240
:10547000322000F087FE424B5B6801209847404B8A
:1054800093F8203003F0C003402B40F05E833C4B88
:1054900093F8203023F04003DAB2394B83F8202010
:1054A00097F82730364A92899B0007F128010B4470
:1054B00023F8282C97F82730314AD28A9B0007F12D
:1054C00028010B4423F8262C97F82730013387F85E
:1054D000273097F82730013B032BC9D801A252F897
:1054E00023F000BFF5540008175500084155000887
:1054F000855500084FF6FF7214211420FFF750FE67
:105500001B4B1B88143B9BB24FF478421421184666
:10551000FFF746FE1AE3164B1B88143B9BB24FF66F
:10552000FF7214211846FFF73BFE114B5B88143BBA
:105530009BB24FF4784219461420FFF731FE05E381
:105540000B4B5B88143B9BB24FF6FF72194614203D
:10555000FFF726FE064B1B88143B98B2044B5B8872
:10556000143B9BB24FF478421946FFF719FEEDE267
:105570002C0B0020D4D20008F0D2000808D3000879
:105580003C0000203B881A46BB88D31A002BB8BFCA
:105590005B423B627B881A46FB88D31A002BB8BF5C
:1055A0005B42FB613B6A03FB03F33B62FB6903FB6A
:1055B00003F3FB613A6AFB6913441846FAF79AFF52
:1055C00002460B4643EC102B07F020FC53EC102B4B
:1055D00010461946FBF7B8FA03467B833B891A4607
:1055E000BB89D31A002BB8BF5B423B627B891A464A
:1055F000FB89D31A002BB8BF5B42FB613B6A03FBFC
:1056000003F33B62FB6903FB03F3FB613A6AFB694B
:1056100013441846FAF76EFF02460B4643EC102B74
:1056200007F0F4FB53EC102B10461946FBF78CFAED
:1056300003463B837B8B07EE903AB8EE677A3B8B51
:1056400007EE903AF8EEE77AC7EE276A16EE900A70
:10565000FAF772FF02460B46C7E9042384A3D3E995
:105660000023D7E90401FBF731FA0346002B0FD1E1
:1056700081A3D3E90023D7E90401FBF745FA0346E8
:10568000002B05D17B8B002B02D03B8B002B36D11E
:10569000002387F827307A4B1B88143B98B2784B4D
:1056A0005B88143B9BB24FF6FF721946FFF778FDFB
:1056B0004FF4784214211420FFF772FD0023029367
:1056C000102301934FF6FF7300934FF478436D4A14
:1056D00028210520FDF740FC0023029310230193AD
:1056E0004FF6FF7300934FF47843674A3C2105203F
:1056F000FDF732FC4FF47A7000F044FD26E23B885F
:105700001A463B89D31A002BB8BF5B423B627B88A9
:105710001A467B89D31A002BB8BF5B42FB613B6AF8
:1057200003FB03F33B62FB6903FB03F3FB613A6A90
:10573000FB6913441846FAF7DDFE02460B4643ECBC
:10574000102B07F063FB53EC102B10461946FBF7A8
:10575000FBF903467B83BB881A46BB89D31A002B0F
:10576000B8BF5B423B62FB881A46FB89D31A002B09
:10577000B8BF5B42FB613B6A03FB03F33B62FB691F
:1057800003FB03F3FB613A6AFB6913441846FAF71B
:10579000B1FE02460B4643EC102B07F037FB53ECEF
:1057A000102B10461946FBF7CFF903463B837B8B42
:1057B00007EE903AB8EE677A3B8B07EE903AF8EE38
:1057C000E77AC7EE276A16EE900AFAF7B5FE0246A8
:1057D0000B46C7E9042326A3D3E90023D7E9040134
:1057E000FBF774F90346002B09D123A3D3E9002367
:1057F000D7E90401FBF788F90346002B46D00023C4
:1058000087F827301E4B1B88143B98B21C4B5B88D3
:10581000143B9BB24FF6FF721946FFF7C1FC4FF4E1
:10582000784214211420FFF7BBFC002302931023BD
:1058300001934FF6FF7300934FF47843114A2821E8
:105840000520FDF789FB00230293102301934FF6F7
:10585000FF7300934FF478430B4A3C210520FDF77A
:105860007BFB4FF47A7000F08DFC6FE1AFF30080AA
:10587000666666666666EE3FCDCCCCCCCCCCF03F9F
:105880002C0B00201CD300083CD30008BB881A4610
:105890003B89D31A002BB8BF5B423B62FB881A4698
:1058A0007B89D31A002BB8BF5B42FB613B6A03FBC9
:1058B00003F33B62FB6903FB03F3FB613A6AFB6999
:1058C00013441846FAF716FE02460B4643EC102B1B
:1058D00007F09CFA53EC102B10461946FBF734F9ED
:1058E00003467B833B881A46BB89D31A002BB8BF7B
:1058F0005B423B627B881A46FB89D31A002BB8BFF8
:105900005B42FB613B6A03FB03F33B62FB6903FB06
:1059100003F3FB613A6AFB6913441846FAF7EAFDA0
:1059200002460B4643EC102B07F070FA53EC102B99
:1059300010461946FBF708F903463B837B8B07EEBD
:10594000903AB8EE677A3B8B07EE903AF8EEE77A3A
:10595000C7EE276A16EE900AFAF7EEFD02460B46EE
:10596000C7E9042383A3D3E90023D7E90401FBF7A4
:10597000ADF80346002B09D180A3D3E90023D7E972
:105980000401FBF7C1F80346002B36D0002387F84B
:105990002730714B1B88143B98B26F4B5B88143BCC
:1059A0009BB24FF6FF721946FFF7FAFB4FF47842AD
:1059B00014211420FFF7F4FB00230293102301931A
:1059C0004FF6FF7300934FF47843644A2821052073
:1059D000FDF7C2FA00230293102301934FF6FF73E1
:1059E00000934FF478435E4A3C210520FDF7B4FA5A
:1059F0004FF47A7000F0C6FBA8E0574B1B88283B99
:105A000007EE903AF8EEE76ABB881A463B88D31A4D
:105A100007EE903AB8EEE77AC6EE877A514BC3EDBF
:105A2000097A4D4B1B8807EE903AB8EEE77A4D4B5A
:105A3000D3ED096ABB881A463B88134407EE903AB7
:105A4000F8EEE77A66EEA77A37EE677AF0EE006A4C
:105A5000C7EE267AFDEEE77A17EE903A1AB2414B7E
:105A60009A853D4B5B88283B07EE903AF8EEE76A53
:105A70007B891A467B88D31A07EE903AB8EEE77A0C
:105A8000C6EE877A374BC3ED0A7A334B5B8807EE55
:105A9000903AB8EEE77A334BD3ED0A6A7B891A461F
:105AA0007B88134407EE903AF8EEE77A66EEA77A21
:105AB00037EE677AF0EE006AC7EE267AFDEEE77AF7
:105AC00017EE903A1AB2274BDA85234B1B88143B0A
:105AD00098B2214B5B88143B9BB24FF6FF7219467C
